:100000000C9434000C9446000C9446000C9446006A
:100010000C9446000C9446000C9446000C94460048
:100020000C9446000C9446000C9446000C94460038
:100030000C9446000C9446000C9446000C94460028
:100040000C9446000C9446000C9446000C94460018
:100050000C9446000C9446000C9446000C94460008
:100060000C9446000C94460011241FBECFEFD8E03C
:10007000DEBFCDBF21E0A0E0B1E001C01D92A33002
:10008000B207E1F70E9460000C949D000C94000000
:10009000089508958BB180658BB95F985D98089538
:1000A0008BB1806A8BB95C985E9808958BB18F7024
:1000B0008BB908958AB1806F8AB917B81BB80895B3
:1000C000C1E0D0E086B18093020185FD29C0809116
:1000D000000190910101892BC9F08091000190915C
:1000E00001010197E9F44B9925C00E945600109236
:1000F00001011092000114C00E944A00489B06C0F2
:10010000D0930101C09300010E945600809100012C
:1001100090910101892B81F38091020185FFDDCF50
:100120002FEF87EA91E6215080409040E1F700C030
:0E0130000000C8CF0E945000D6CFF894FFCF39
:00000001FF
