:100000000C9472000C9486000C9486000C9486006C
:100010000C9486000C9486000C9486000C94860048
:100020000C9486000C9486000C9486000C94860038
:100030000C9486000C9486000C9486000C94860028
:100040000C9486000C9486000C9486000C94860018
:100050000C9486000C9486000C9486000C94860008
:100060000C9486000C9486000C9486000C948600F8
:100070000C9486000C9486000C9486000C948600E8
:100080000C9486000C9486000C9486000C948600D8
:100090000C9486000C9486000C9486000C948600C8
:1000A0000C9486000C9486000C9486000C948600B8
:1000B0000C9486000C9486000C9486000C948600A8
:1000C0000C9486000C9486000C9486000C94860098
:1000D0000C9486000C9486000C9486000C94860088
:1000E0000C94860011241FBECFEFD1E2DEBFCDBF3E
:1000F00000E00CBF22E0A0E0B2E001C01D92AE33F0
:10010000B207E1F70E94AB040C94C9060C940000FE
:100110008FE99FE00197F1F700C000001398159850
:1001200080E388B9179A8FE19EE40197F1F700C048
:10013000000017988FE99FE00197F1F700C00000D9
:100140001398159880E388B9179A8FE19EE4019778
:10015000F1F700C0000017988FE99FE00197F1F7D1
:1001600000C000001398159880E388B9179A8FE1B2
:100170009EE40197F1F700C0000017988FE99FE017
:100180000197F1F700C000001398159880E288B934
:10019000179A8FE19EE40197F1F700C000001798CD
:1001A000089598B19F7098B928B1982F907F922B9D
:1001B00098B913981598179AEFE1FEE43197F1F783
:1001C00000C00000179898B19F7098B998B18295B7
:1001D000807F892B88B913981598179A8FE19EE430
:1001E0000197F1F700C00000179808950E94880059
:1001F0008FE99FE00197F1F700C0000088E20E94BC
:10020000D10081E00E94D10086E00E94D1008EE002
:100210000E94D10080E80C94D10098B19F7098B9E9
:1002200028B1982F907F922B98B9139A1598179A06
:10023000EFE1FEE43197F1F700C00000179898B1A4
:100240009F7098B998B18295807F892B88B9139A4D
:100250001598179A8FE19EE40197F1F700C000000E
:100260001798089580E80C94D100CF93DF93EC01A8
:100270008991882319F00E940D01FACFDF91CF9167
:100280000895982F862F923059F018F4913031F05C
:100290000895933039F0943039F00895815805C0AD
:1002A000815403C08D5601C08D520C94D1000F9320
:1002B0001F93CF93DF938A01E901882311F0611125
:1002C00003C00E94320102C00E944101C530D10525
:1002D00079F4C80160E177E20E94B506605D7F4F66
:1002E00070931D0260931C02862F0E940D0103C0B3
:1002F000C430D10559F5C80168EE73E00E94B50617
:10030000CB0170932302609322026AE070E00E94A6
:10031000B506C09690933902809338020E940D0171
:10032000C80164E670E00E94B506CB017093230219
:10033000609322026AE070E00E94B506C096909336
:100340003102809330020E940D0106C0C330D105F6
:1003500039F3C230D10551F52AE030E0C801B901C6
:100360000E94B506CB017093230260932202B9016B
:100370000E94B506C09690932502809324020E94A5
:100380000D01C8016AE070E00E94B506C096909326
:100390003702809336020E940D0126975CF085E4B7
:1003A000DF91CF911F910F910C940D01C130D105B8
:1003B000A1F7E7CFDF91CF911F910F91089587B1FA
:1003C000806F87B981B1886A81B988B18F7088B927
:1003D00082B1877582B9089510BA11BA10920701D7
:1003E00010920801089581B1856581B982B182B901
:1003F0008DB180638DB98EB180638EB908958FEF12
:10040000809307018093080108950E94DF010E94F4
:10041000EC010C94F301E1E9F0E010828FEF80939E
:10042000950091E09093940010929B0080939A0025
:1004300010929D0080939C0089EA809390008BE04D
:100440008083089580E480937C0087E880937A001D
:1004500010927B0008958F3F91053CF482302FEF7E
:1004600092072CF481E09FEF08958FEF90E00895BC
:1004700090917C00907E90937C0090917B00977F80
:1004800090937B00982F9F70983048F490917C0057
:100490008770892B80937C0010927B000EC0209186
:1004A0007C0088EF890F822B80937C0010927B0068
:1004B00080917B00886080937B0080917A008064CB
:1004C00080937A0080917A0084FFFCCF809178003D
:1004D00090917900089597FF06C0919581959109B3
:1004E000149A169802C01498169A77FD03C0109AB1
:1004F000129805C01098129A7195619571098093B0
:100500009A00655060939C00089582B18A7A82B9FE
:1005100082B1816482B908958AEA82B9089560EB54
:100520007FEF84E690E00E946B022FEF8FE097E26E
:10053000215080409040E1F700C0000082E00E941E
:100540003802909327028093260280912602909190
:1005500027028B3F910590F38AEA82B92FEF89E653
:1005600098E1215080409040E1F700C000001092D7
:100570003B0210923A0281E080930102089580913B
:100580000102811121C080913402909135028E3A8E
:1005900021E092070CF445C02091000221110FC008
:1005A0008AEA82B93FEF85EE9AEA31508040904066
:1005B000E1F700C0000081E08093000208958632D8
:1005C00092407CF10C948F0280913A0290913B0210
:1005D00082309105A9F48AEA82B93FEF83E294EF71
:1005E000315080409040E1F700C0000080913A0215
:1005F00090913B02019690933B0280933A020895BA
:10060000059779F48AEA82B987EF809308012AEA8C
:1006100032E085EE9FE02150304080409040D9F795
:1006200000000895F8940E9405020E9422020E9490
:100630000B02789408954F925F926F927F928F92FF
:100640009F92AF92BF92CF92DF92EF92FF920F9361
:100650001F93CF93DF9310920E0210920F0210920D
:1006600010021092110210920A0210920B021092C4
:100670000C0210920D0202E112E0C1E0D0E08C2FDA
:100680000E943802F801819391938F018739910577
:100690008CF1BE01882777FD8095982F0E94C605B2
:1006A0009B01AC0160910A0270910B0280910C02D7
:1006B00090910D020E94C70460930A0270930B028E
:1006C00080930C0290930D0220E030E040E85FE35D
:1006D00060910E0270910F028091100290911102B0
:1006E0000E94C70460930E0270930F028093100261
:1006F000909311022196C430D10509F620910E0283
:1007000030910F02409110025091110260910A0243
:1007100070910B0280910C0290910D020E942B05AA
:1007200020E030E040E050E40E94C60460932802DC
:100730007093290280932A0290932B0281E00E94F9
:10074000380290931F0280931E0282E00E943802BA
:10075000909327028093260283E00E9438029093B0
:100760001B0280931A0240911E0250911F02209199
:100770002602309127024739510568F027393105A3
:1007800050F18091200290912102019690932102D4
:10079000809320023DC02739310518F08739910533
:1007A00080F746395105B9F026393105A0F486396C
:1007B000910588F480912C0290912D02A0912E0237
:1007C000B0912F028093280290932902A0932A02CD
:1007D000B0932B021DC08B3F910598F64B3F5105FE
:1007E00080F6293B314068F68091200290912102E9
:1007F000181619066CF480913A0290913B0201960A
:1008000090933B0280933A021092210210922002B0
:10081000C0902802D0902902E0902A02F0902B028A
:10082000C701B6010E9493052AEF269FE001279F8A
:10083000D00D1124D0933D02C0933C02609132024E
:1008400070913302882777FD8095982F0E94C60506
:100850004B015C0120E030E040E05FE3C701B601FE
:100860000E9452069B01AC01C501B4010E94C7045D
:100870000E9493054B015C01709333026093320236
:1008800020912C0230912D0240912E0250912F0286
:10089000C701B6010E94C60420E030E04AE753E4F5
:1008A0000E9452060E9493052B013C01709319028D
:1008B00060931802CE0184529F4F880D991D840DBC
:1008C000951D0E942B028C01BC01882777FD809525
:1008D000982F0E94C60560930602709307028093CA
:1008E0000802909309028CED90E08C1B9D0B8819F7
:1008F0009909841995090E942B02EC01BC018827F3
:1009000077FD8095982F0E94C60560930202709330
:1009100003028093040290930502C0922C02D092AD
:100920002D02E0922E02F0922F02BE01C8010E9419
:100930006B02DF91CF911F910F91FF90EF90DF90AD
:10094000CF90BF90AF909F908F907F906F905F906F
:100950004F900C94BF020E9412030E94FF012FEFE0
:1009600087EA91E6215080409040E1F700C0000006
:1009700080E00E94380290933502809334026FEF3A
:1009800070E08FEF90E00E946B02F2CF5058BB27CF
:10099000AA270ED04DC13ED130F043D120F031F422
:1009A0009F3F11F41EF433C10EF4E095E7FB29C11B
:1009B000E92F4FD180F3BA176207730784079507B1
:1009C00018F071F49EF567C10EF4E0950B2EBA2F66
:1009D000A02D0B01B90190010C01CA01A001112445
:1009E000FF27591B99F0593F50F4503E68F11A16F1
:1009F000F040A22F232F342F4427585FF3CF469582
:100A000037952795A795F0405395C9F77EF41F16A3
:100A1000BA0B620B730B840BBAF09150A1F0FF0F6D
:100A2000BB1F661F771F881FC2F70EC0BA0F621F59
:100A3000731F841F48F4879577956795B795F79549
:100A40009E3F08F0B3CF9395880F08F09927EE0FDB
:100A50009795879508950CD0EBC0E3D040F0DAD09D
:100A600030F021F45F3F19F0CCC0511115C1CFC057
:100A7000F0D098F39923C9F35523B1F3951B550B87
:100A8000BB27AA2762177307840738F09F5F5F4F61
:100A9000220F331F441FAA1FA9F333D00E2E3AF0A2
:100AA000E0E830D091505040E695001CCAF729D0BC
:100AB000FE2F27D0660F771F881FBB1F261737070B
:100AC0004807AB07B0E809F0BB0B802DBF01FF273B
:100AD00093585F4F2AF09E3F510568F092C0DCC0EA
:100AE0005F3FECF3983EDCF3869577956795B79575
:100AF000F7959F5FC9F7880F911D9695879597F990
:100B00000895E1E0660F771F881FBB1F6217730708
:100B10008407BA0720F0621B730B840BBA0BEE1F1D
:100B200088F7E095089504D06894B111B5C0089590
:100B300098D088F09F5790F0B92F9927B751A0F01F
:100B4000D1F0660F771F881F991F1AF0BA95C9F761
:100B500012C0B13081F09FD0B1E008959CC0672FE2
:100B6000782F8827B85F39F0B93FCCF38695779511
:100B70006795B395D9F73EF49095809570956195FA
:100B80007F4F8F4F9F4F0895E89409C097FB3EF425
:100B900090958095709561957F4F8F4F9F4F9923CA
:100BA000A9F0F92F96E9BB279395F6958795779548
:100BB0006795B795F111F8CFFAF4BB0F11F460FF08
:100BC0001BC06F5F7F4F8F4F9F4F16C0882311F060
:100BD00096E911C0772321F09EE8872F762F05C074
:100BE000662371F096E8862F70E060E02AF09A950F
:100BF000660F771F881FDAF7880F9695879597F904
:100C0000089597F99F6780E870E060E008959FEF8E
:100C100080EC089500240A94161617061806090693
:100C2000089500240A941216130614060506089562
:100C3000092E0394000C11F4882352F0BB0F40F4EA
:100C4000BF2B11F460FF04C06F5F7F4F8F4F9F4F2A
:100C5000089557FD9058440F551F59F05F3F71F0AC
:100C60004795880F97FB991F61F09F3F79F0879513
:100C70000895121613061406551FF2CF4695F1DF9C
:100C800008C0161617061806991FF1CF869571052C
:100C9000610508940895E894BB2766277727CB0160
:100CA00097F908950BD0C4CFB5DF28F0BADF18F05C
:100CB000952309F0A6CFABCF1124EECFCADFA0F366
:100CC000959FD1F3950F50E0551F629FF001729FE1
:100CD000BB27F00DB11D639FAA27F00DB11DAA1F00
:100CE000649F6627B00DA11D661F829F2227B00D4D
:100CF000A11D621F739FB00DA11D621F839FA00DD8
:100D0000611D221F749F3327A00D611D231F849F27
:100D1000600D211D822F762F6A2F11249F5750407E
:100D20008AF0E1F088234AF0EE0FFF1FBB1F661F19
:100D3000771F881F91505040A9F79E3F510570F0D2
:100D400060CFAACF5F3FECF3983EDCF386957795B2
:100D50006795B795F795E7959F5FC1F7FE2B880FCD
:100D6000911D9695879597F90895AA1BBB1B51E194
:100D700007C0AA1FBB1FA617B70710F0A61BB70B0B
:100D8000881F991F5A95A9F780959095BC01CD01B0
:060D90000895F894FFCF66
:00000001FF
